{
  "_format": "hh-sol-artifact-1",
  "contractName": "Greeter",
  "sourceName": "contracts/Greeter.sol",
  "abi": [
    {
      "inputs": [
        {
          "internalType": "string",
          "name": "_greeting",
          "type": "string"
        }
      ],
      "stateMutability": "nonpayable",
      "type": "constructor"
    },
    {
      "inputs": [],
      "name": "greet",
      "outputs": [
        {
          "internalType": "string",
          "name": "",
          "type": "string"
        }
      ],
      "stateMutability": "view",
      "type": "function"
    },
    {
      "inputs": [
        {
          "internalType": "uint256",
          "name": "num",
          "type": "uint256"
        }
      ],
      "name": "greet2",
      "outputs": [
        {
          "internalType": "string",
          "name": "",
          "type": "string"
        }
      ],
      "stateMutability": "view",
      "type": "function"
    },
    {
      "inputs": [
        {
          "internalType": "uint256",
          "name": "num",
          "type": "uint256"
        }
      ],
      "name": "greet3",
      "outputs": [
        {
          "internalType": "string",
          "name": "",
          "type": "string"
        }
      ],
      "stateMutability": "view",
      "type": "function"
    },
    {
      "inputs": [
        {
          "internalType": "string",
          "name": "_greeting",
          "type": "string"
        }
      ],
      "name": "setGreeting",
      "outputs": [],
      "stateMutability": "nonpayable",
      "type": "function"
    }
  ],
  "bytecode": "0x60806040523480156200001157600080fd5b506040516200091538038062000915833981810160405281019062000037919062000179565b80600090805190602001906200004f92919062000057565b50506200032e565b828054620000659062000253565b90600052602060002090601f016020900481019282620000895760008555620000d5565b82601f10620000a457805160ff1916838001178555620000d5565b82800160010185558215620000d5579182015b82811115620000d4578251825591602001919060010190620000b7565b5b509050620000e49190620000e8565b5090565b5b8082111562000103576000816000905550600101620000e9565b5090565b60006200011e6200011884620001e7565b620001be565b9050828152602081018484840111156200013757600080fd5b620001448482856200021d565b509392505050565b600082601f8301126200015e57600080fd5b81516200017084826020860162000107565b91505092915050565b6000602082840312156200018c57600080fd5b600082015167ffffffffffffffff811115620001a757600080fd5b620001b5848285016200014c565b91505092915050565b6000620001ca620001dd565b9050620001d8828262000289565b919050565b6000604051905090565b600067ffffffffffffffff821115620002055762000204620002ee565b5b62000210826200031d565b9050602081019050919050565b60005b838110156200023d57808201518184015260208101905062000220565b838111156200024d576000848401525b50505050565b600060028204905060018216806200026c57607f821691505b60208210811415620002835762000282620002bf565b5b50919050565b62000294826200031d565b810181811067ffffffffffffffff82111715620002b657620002b5620002ee565b5b80604052505050565b7f4e487b7100000000000000000000000000000000000000000000000000000000600052602260045260246000fd5b7f4e487b7100000000000000000000000000000000000000000000000000000000600052604160045260246000fd5b6000601f19601f8301169050919050565b6105d7806200033e6000396000f3fe608060405234801561001057600080fd5b506004361061004c5760003560e01c806302d355dc14610051578063a413686214610081578063cfae32171461009d578063f9220889146100bb575b600080fd5b61006b60048036038101906100669190610376565b6100eb565b60405161007891906103d8565b60405180910390f35b61009b60048036038101906100969190610335565b61012a565b005b6100a5610144565b6040516100b291906103d8565b60405180910390f35b6100d560048036038101906100d09190610376565b6101d6565b6040516100e291906103d8565b60405180910390f35b60606040518060400160405280600681526020017f67726565743300000000000000000000000000000000000000000000000000008152509050919050565b8060009080519060200190610140929190610215565b5050565b606060008054610153906104b8565b80601f016020809104026020016040519081016040528092919081815260200182805461017f906104b8565b80156101cc5780601f106101a1576101008083540402835291602001916101cc565b820191906000526020600020905b8154815290600101906020018083116101af57829003601f168201915b5050505050905090565b60606040518060400160405280600681526020017f67726565743200000000000000000000000000000000000000000000000000008152509050919050565b828054610221906104b8565b90600052602060002090601f016020900481019282610243576000855561028a565b82601f1061025c57805160ff191683800117855561028a565b8280016001018555821561028a579182015b8281111561028957825182559160200191906001019061026e565b5b509050610297919061029b565b5090565b5b808211156102b457600081600090555060010161029c565b5090565b60006102cb6102c68461041f565b6103fa565b9050828152602081018484840111156102e357600080fd5b6102ee848285610476565b509392505050565b600082601f83011261030757600080fd5b81356103178482602086016102b8565b91505092915050565b60008135905061032f8161058a565b92915050565b60006020828403121561034757600080fd5b600082013567ffffffffffffffff81111561036157600080fd5b61036d848285016102f6565b91505092915050565b60006020828403121561038857600080fd5b600061039684828501610320565b91505092915050565b60006103aa82610450565b6103b4818561045b565b93506103c4818560208601610485565b6103cd81610579565b840191505092915050565b600060208201905081810360008301526103f2818461039f565b905092915050565b6000610404610415565b905061041082826104ea565b919050565b6000604051905090565b600067ffffffffffffffff82111561043a5761043961054a565b5b61044382610579565b9050602081019050919050565b600081519050919050565b600082825260208201905092915050565b6000819050919050565b82818337600083830152505050565b60005b838110156104a3578082015181840152602081019050610488565b838111156104b2576000848401525b50505050565b600060028204905060018216806104d057607f821691505b602082108114156104e4576104e361051b565b5b50919050565b6104f382610579565b810181811067ffffffffffffffff821117156105125761051161054a565b5b80604052505050565b7f4e487b7100000000000000000000000000000000000000000000000000000000600052602260045260246000fd5b7f4e487b7100000000000000000000000000000000000000000000000000000000600052604160045260246000fd5b6000601f19601f8301169050919050565b6105938161046c565b811461059e57600080fd5b5056fea2646970667358221220e995ea35096e26f4549fe56bc1593b7724e945a4c017c2292d4db5ecad28e8e764736f6c63430008040033",
  "linkReferences": {},
  "deployedLinkReferences": {}
}